:020000040800F2
:10000000FFFF0120010B000899050008A505000865
:10001000AD050008B5050008BD050008000000009A
:10002000000000000000000000000000C5050008FE
:10003000D105000800000000DD050008010A0008E5
:10004000510B0008510B0008510B0008510B000820
:10005000510B0008510B0008510B0008510B000810
:10006000510B0008510B0008510B0008510B000800
:10007000510B0008510B0008510B0008510B0008F0
:10008000510B0008510B0008510B0008510B0008E0
:10009000510B0008510B0008510B0008510B0008D0
:1000A000510B0008510B0008510B0008510B0008C0
:1000B000510B0008510B0008510B0008510B0008B0
:1000C000510B0008510B0008510B0008510B0008A0
:1000D000510B0008510B0008510B0008510B000890
:1000E000510B0008510B0008510B0008510B000880
:1000F000510B0008510B0008510B0008510B000870
:10010000510B0008510B0008510B0008510B00085F
:10011000510B0008510B0008510B0008510B00084F
:10012000510B0008510B0008510B0008510B00083F
:10013000510B0008510B0008510B0008510B00082F
:10014000510B0008510B0008510B0008510B00081F
:10015000510B0008510B0008510B0008510B00080F
:10016000510B0008510B0008510B0008510B0008FF
:10017000510B0008510B0008510B00080000000053
:10018000510B0008510B0008510B0008510B0008DF
:10019000510B0008510B0008510B0008510B0008CF
:0C01A000510B0008510B0008510B000827
:1002000010B5054C237833B9044B13B10448AFF350
:1002100000800123237010BD400400200000000076
:10022000540B0008084B10B51BB108480849AFF340
:1002300000800848036803B910BD074B002BFBD0B2
:10024000BDE81040184700BF00000000540B000834
:1002500044040020400400200000000080B483B06B
:1002600000AF00237B607B6801337B60FBE700BF4E
:1002700080B483B000AF4FF0FF337B607B68013BFD
:100280007B60FBE780B483B000AF2C4B2C4A5A60F4
:100290002A4B00229A602B4B2B4A5A602B4A294B3F
:1002A0009A602A4B3C3B7B607B68264A93607B6864
:1002B00044F244421A607B6845F255525A607B68AA
:1002C00046F266629A607B6847F27772DA607B6812
:1002D00048F688021A617B6849F699125A617B6870
:1002E0004AF6AA229A617B684BF6BB32DA617B68D8
:1002F00041F211121A627B6842F222225A627B6832
:1003000043F233329A627B684CF6CC42DA627B6805
:100310004FF480521A630E4A7B685A637B684FF42D
:1003200090529A630B4B054A1A600B4B054A1A60B0
:100330000C37BD465DF8047B704700BF7C08002089
:100340006C0B00086C040020780B0008900C002057
:100350005D020008880800206804002080B485B091
:1003600000AF7860FB687A681A60FB6800225A6008
:10037000FB6818461437BD465DF8047B704700BF24
:1003800080B584B000AF786039607B681B68FB6023
:10039000FB68002B21D0FB681A683B689A4208D1A1
:1003A00007F10C03184600F01BF8FA687B681A6026
:1003B00013E00EE0FB685B681A683B689A4205D15F
:1003C000FB680433184600F00BF806E0FB685B6836
:1003D000FB60FB685B68002BECD11037BD4680BD2D
:1003E00080B485B000AF78607B681B68FB60FB68F9
:1003F000002B00D105E0FB685B68BB607B68BA68D6
:100400001A601437BD465DF8047B704780B485B030
:1004100000AF78607B681B68FB60FB68002B01D134
:10042000002309E0FB685B68BB607B68BA681A6000
:10043000FB6800225A60FB6818461437BD465DF819
:10044000047B704780B400AF124A124B1B6843F024
:10045000010313600F4B00229A600E4A0D4B1B687C
:1004600023F0847323F4803313600A4B0A4A5A60E2
:10047000084A084B1B6823F480231360054B0022B5
:10048000DA60064B4FF000629A60BD465DF8047B6F
:10049000704700BF003802401030002400ED00E03B
:1004A00080B487B000AF00233B6100237B6102234F
:1004B000FB600023BB6002237B60324B9B6803F030
:1004C0000C033B613B69042B07D0082B09D0002BA0
:1004D0003FD12D4B2D4A1A603FE02B4B2C4A1A601E
:1004E0003BE0284B5B6803F480039B0DBB60254B0E
:1004F0005B6803F03F037B60BB68002B0DD0244A90
:100500007B68B2FBF3F21F4B596847F6C0730B4090
:100510009B0903FB02F37B610CE01C4A7B68B2FB86
:10052000F3F2184B596847F6C0730B409B0903FB65
:1005300002F37B61134B5B6803F440331B0C013304
:100540005B00FB607A69FB68B2FBF3F30E4A136051
:1005500003E00D4B0D4A1A6000BF0A4B9B6803F085
:10056000F0031B090B4AD35CDBB23B61064B1A68F4
:100570003B6922FA03F3044A13601C37BD465DF859
:10058000047B704700380240000000200024F40083
:1005900000127A000400002080B400AFBD465DF870
:1005A000047B704780B400AFFEE700BF80B400AFAB
:1005B000FEE700BF80B400AFFEE700BF80B400AF2D
:1005C000FEE700BF80B400AFBD465DF8047B704716
:1005D00080B400AFBD465DF8047B704780B400AFC7
:1005E000BD465DF8047B704780B483B000AF03461E
:1005F0003960FB7197F90730002B0BDA0D49FB7955
:1006000003F00F03043B3A68D2B21201D2B20B449A
:100610001A7609E0084997F907303A68D2B2120110
:10062000D2B20B4483F800230C37BD465DF8047B3F
:10063000704700BF00ED00E000E100E080B582B04F
:1006400000AF78607B68013BB3F1807F01D3012369
:100650000FE00A4A7B68013B53604FF0FF300F21E7
:10066000FFF7C2FF054B00229A60044B07221A6075
:10067000002318460837BD4680BD00BF10E000E0EB
:1006800080B500AF00F006F8FFF7FCFD00F038F988
:10069000FEE700BF80B500AF064B1B68064AA2FB11
:1006A00003239B091846FFF7C9FF0346002B00D020
:1006B000FEE780BD00000020D34D621080B483B0FF
:1006C00000AF78607A6813465B00134418460C3715
:1006D000BD465DF8047B704780B584B000AF78609C
:1006E00039607B681B68FB60FB68002B07D13868AA
:1006F000FFF734FEF8607B68FA681A600DE002E0EC
:10070000FB685B68FB60FB685B68002BF8D13868AE
:10071000FFF724FE0246FB685A601037BD4680BDD5
:1007200080B584B000AF786039607B681B68FB607F
:100730003868FFF713FEB860BB68FA685A607B68D8
:10074000BA681A601037BD4680BD00BF80B588B05A
:1007500000AFF860B9607A60FB681B68FB6115E068
:10076000FB691A687B689A420DD1FB695B68BB61C3
:10077000B868FFF7F3FD78617B69BA695A60FB6975
:100780007A695A6005E0FB695B68FB61FB69002BD5
:10079000E6D12037BD4680BD70B50F4E0F4D761B9C
:1007A000B61018BF002405D0013455F8043B984713
:1007B000A642F9D10A4E0B4D761B00F0CBF9B610CC
:1007C00018BF002406D0013455F8043B9847A642D0
:1007D000F9D170BD70BD00BF8C0B00088C0B0008F8
:1007E000940B00088C0B0008024B13B1024800F078
:1007F00005B8704700000000090800080146002005
:100800000246034600F016B838B5084B084DED1AFD
:10081000AC1018BFED1805D0013C55F8043D9847C1
:10082000002CF9D1BDE8384000F09AB9940B0008CB
:10083000980B00082DE9F047254C2568D5F848416C
:100840000646884692469946CCB360681F2818DC55
:10085000431C7EB104EB80050121C5F888A0D4F8C3
:10086000887101FA00F21743022EC4F88871C5F8A6
:1008700008911ED00230636044F820800020BDE85B
:10088000F087144B03B34FF4C870AFF300800446F5
:10089000D0B1D5F84831002780E88800C5F8484134
:1008A00038460123C4F88871C4F88C71002EE1D059
:1008B000D0E7D4F88C110A43C4F88C21DAE705F5A7
:1008C000A674C5F84841C0E74FF0FF30BDE8F08797
:1008D000880B00080000000000000000000000007D
:1008E0000000000000000000000000000000000008
:1008F00000000000000000000000000000000000F8
:100900004A484B494B4A4C4B4C4C4D4D4D4E4E4F2B
:10091000DFF83881DFF83891DFF838A1DFF838B137
:10092000DFF838C1DFF838E101B4FEE7AFF300804B
:10093000AFF30080AFF30080AFF30080AFF300802F
:1009400000000000000000000000000000000000A7
:100950000000000000000000000000000000000097
:100960000000000000000000000000000000000087
:100970000000000000000000000000000000000077
:100980000000000000000000000000000000000067
:100990000000000000000000000000000000000057
:1009A0000000000000000000000000000000000047
:1009B0000000000000000000000000000000000037
:1009C0000000000000000000000000000000000027
:1009D0000000000000000000000000000000000017
:1009E0000000000000000000000000000000000007
:1009F00000000000000000000000000000000000F7
:100A00002DE9F00F174C2468C4F808D000B516483B
:100A1000FFF7FCFC05461349086013482146FFF721
:100A20005BFE5DF804EBBDE8F00F704700000000CE
:100A3000111111112222222233333333444444440E
:100A400055555555666666667777777788888888BE
:100A500099999999AAAAAAAABBBBBBBBCCCCCCCC6E
:100A6000CEFAADDE8808002068040020AFF30080D5
:100A7000AFF30080AFF30080AFF30080AFF30080EE
:100A80000000000000000000000000000000000066
:100A90000000000000000000000000000000000056
:100AA0000000000000000000000000000000000046
:100AB0000000000000000000000000000000000036
:100AC0000000000000000000000000000000000026
:100AD0000000000000000000000000000000000016
:100AE0000000000000000000000000000000000006
:100AF00000000000000000000000000000000000F6
:100B0000DFF834D0002103E00C4B5B584350043134
:100B10000B480C4B42189A42F6D30B4A02E00023D2
:100B200042F8043B094B9A42F9D3FFF78BFCFFF7DD
:100B300033FEFFF7A5FD7047FFFF0120980B00086B
:100B4000000000204004002040040020900C002001
:100B5000FEE70000F8B500BFF8BC08BC9E46704731
:0C0B6000F8B500BFF8BC08BC9E4670470A
:100B6C006D61696E5F74687265616400746872654A
:100B7C0061642023310000004300000018000020B5
:080B8C00E9070008250200083A
:040B94000102000852
:100B98000024F4000000000000000000010203042B
:100BA80006070809000000000000000004030020F8
:100BB8006C030020D40300200000000000000000A7
:100BC800000000000000000000000000000000001D
:100BD800000000000000000000000000840B000876
:100BE80000000000000000000000000000000000FD
:100BF80000000000000000000000000000000000ED
:100C080000000000000000000000000000000000DC
:100C180000000000000000000000000000000000CC
:100C280000000000000000000000000000000000BC
:100C380000000000000000000000000000000000AC
:100C4800000000000000000000000000000000009C
:100C580001000000000000000E33CDAB34126DE639
:100C6800ECDE05000B0000000000000000000000A2
:100C7800000000000000000000000000000000006C
:100C8800000000000000000000000000000000005C
:100C9800000000000000000000000000000000004C
:100CA800000000000000000000000000000000003C
:0400000508000B01E3
:00000001FF
