:020000040800F2
:10000000FFFF0120010B00086505000871050008CD
:100010007905000881050008890500080000000036
:100020000000000000000000000000009105000832
:100030009D05000800000000A9050008010A00084D
:10004000510B0008510B0008510B0008510B000820
:10005000510B0008510B0008510B0008510B000810
:10006000510B0008510B0008510B0008510B000800
:10007000510B0008510B0008510B0008510B0008F0
:10008000510B0008510B0008510B0008510B0008E0
:10009000510B0008510B0008510B0008510B0008D0
:1000A000510B0008510B0008510B0008510B0008C0
:1000B000510B0008510B0008510B0008510B0008B0
:1000C000510B0008510B0008510B0008510B0008A0
:1000D000510B0008510B0008510B0008510B000890
:1000E000510B0008510B0008510B0008510B000880
:1000F000510B0008510B0008510B0008510B000870
:10010000510B0008510B0008510B0008510B00085F
:10011000510B0008510B0008510B0008510B00084F
:10012000510B0008510B0008510B0008510B00083F
:10013000510B0008510B0008510B0008510B00082F
:10014000510B0008510B0008510B0008510B00081F
:10015000510B0008510B0008510B0008510B00080F
:10016000510B0008510B0008510B0008510B0008FF
:10017000510B0008510B0008510B00080000000053
:10018000510B0008510B0008510B0008510B0008DF
:10019000510B0008510B0008510B0008510B0008CF
:0C01A000510B0008510B0008510B000827
:1002000010B5054C237833B9044B13B10448AFF350
:1002100000800123237010BD400400200000000076
:10022000540B0008084B10B51BB108480849AFF340
:1002300000800848036803B910BD074B002BFBD0B2
:10024000BDE81040184700BF00000000540B000834
:1002500044040020400400200000000080B483B06B
:1002600000AF00237B607B6801337B60FBE700BF4E
:1002700080B483B000AF4FF0FF337B607B68013BFD
:100280007B60FBE780B500AF304B314A5A602F4BA3
:1002900000229A602F4B304A5A60304B1B681A4636
:1002A0002C4B9A602D4B1B6844F244421A602B4B36
:1002B0001B6845F255525A60284B1B6846F266622D
:1002C0009A60264B1B6847F27772DA60234B1B68F3
:1002D00048F688021A61214B1B6849F699125A6147
:1002E0001E4B1B684AF6AA229A611C4B1B684BF6F0
:1002F000BB32DA61194B1B6841F211121A62174BBB
:100300001B6842F222225A62144B1B6843F23332BA
:100310009A62124B1B684CF6CC42DA620F4B1B6898
:100320004FF480521A630D4B1B680D4A5A630B4BF6
:100330001B684FF490529A630A4B044A1A600548AE
:1003400000F014F80246084B1A6080BD78080020BF
:100350006C0B00086C040020780B000800000020E3
:100360005D020008840800206804002080B485B085
:1003700000AF7860FB687A681A60FB68184614372B
:10038000BD465DF8047B704780B584B000AF7860EF
:1003900039607B681B68FB60FB68002B21D0FB6821
:1003A0001A683B689A4208D107F10C03184600F01E
:1003B0001BF8FA687B681A6013E00EE0FB685B6864
:1003C0001A683B689A4205D1FB680433184600F06E
:1003D0000BF806E0FB685B68FB60FB685B68002B62
:1003E000ECD11037BD4680BD80B485B000AF7860D9
:1003F0007B681B68FB60FB685B68BB60BB68FB607D
:100400007B68FA681A601437BD465DF8047B704754
:1004100080B400AF124A124B1B6843F00103136013
:100420000F4B00229A600E4A0D4B1B6823F0847319
:1004300023F4803313600A4B0A4A5A60084A084B77
:100440001B6823F480231360054B0022DA60064BFF
:100450004FF000629A60BD465DF8047B704700BFB4
:10046000003802401030002400ED00E080B487B076
:1004700000AF00233B6100237B610223FB6000236C
:10048000BB6002237B60324B9B6803F00C033B6133
:100490003B69042B07D0082B09D0002B3FD12D4BF3
:1004A0002D4A1A603FE02B4B2C4A1A603BE0284B48
:1004B0005B6803F480039B0DBB60254B5B6803F016
:1004C0003F037B60BB68002B0DD0244A7B68B2FBE6
:1004D000F3F21F4B596847F6C0730B409B0903FBAF
:1004E00002F37B610CE01C4A7B68B2FBF3F2184B11
:1004F000596847F6C0730B409B0903FB02F37B610D
:10050000134B5B6803F440331B0C01335B00FB604F
:100510007A69FB68B2FBF3F30E4A136003E00D4BFC
:100520000D4A1A6000BF0A4B9B6803F0F0031B09D9
:100530000B4AD35CDBB23B61064B1A683B6922FA7B
:1005400003F3044A13601C37BD465DF8047B704713
:1005500000380240040000200024F40000127A0059
:100560000800002080B400AFBD465DF8047B7047F2
:1005700080B400AFFEE700BF80B400AFFEE700BF6D
:1005800080B400AFFEE700BF80B400AFFEE700BF5D
:1005900080B400AFBD465DF8047B704780B400AF07
:1005A000BD465DF8047B704780B400AFBD465DF882
:1005B000047B704780B483B000AF03463960FB71A1
:1005C00097F90730002B0BDA0D49FB7903F00F0385
:1005D000043B3A68D2B21201D2B20B441A7609E057
:1005E000084997F907303A68D2B21201D2B20B44E7
:1005F00083F800230C37BD465DF8047B704700BFCD
:1006000000ED00E000E100E080B582B000AF78606E
:100610007B68013BB3F1807F01D301230FE00A4ADD
:100620007B68013B53604FF0FF300F21FFF7C2FFA3
:10063000054B00229A60044B07221A6000231846DB
:100640000837BD4680BD00BF10E000E080B500AFB8
:1006500000F006F8FFF716FE00F052F9FEE700BFC3
:1006600080B500AF064B1B68064AA2FB03239B091B
:100670001846FFF7C9FF0346002B00D0FEE780BDF8
:1006800004000020D34D621080B483B000AF7860C6
:100690007A6813465B00134418460C37BD465DF874
:1006A000047B704780B584B000AF786039607B68A8
:1006B0001B68FB60FB68002B07D13868FFF756FE0C
:1006C000F8607B68FA681A600DE002E0FB685B681E
:1006D000FB60FB685B68002BF8D13868FFF746FECB
:1006E0000246FB685A601037BD4680BD80B584B0B5
:1006F00000AF786039607B681B68FB603868FFF783
:1007000035FEB860BB68FA685A607B68BA681A60E0
:100710001037BD4680BD00BF80B588B000AFF8601F
:10072000B9607A60FB681B68FB6115E0FB691A68B9
:100730007B689A420DD1FB695B68BB61B868FFF7C3
:1007400015FE78617B69BA695A60FB697A695A60FB
:1007500005E0FB695B68FB61FB69002BE6D1203794
:10076000BD4680BD70B50F4E0F4D761BB61018BF3D
:10077000002405D0013455F8043B9847A642F9D12E
:100780000A4E0B4D761B00F0E5F9B61018BF002499
:1007900006D0013455F8043B9847A642F9D170BD04
:1007A00070BD00BF8C0B00088C0B0008940B000878
:1007B0008C0B0008024B13B1024800F005B87047DB
:1007C00000000000D507000801460020024603464D
:1007D00000F016B838B5084B084DED1AAC1018BF2C
:1007E000ED1805D0013C55F8043D9847002CF9D18F
:1007F000BDE8384000F0B4B9940B0008980B00082D
:100800002DE9F047254C2568D5F84841064688462D
:1008100092469946CCB360681F2818DC431C7EB111
:1008200004EB80050121C5F888A0D4F8887101FA8D
:1008300000F21743022EC4F88871C5F808911ED043
:100840000230636044F820800020BDE8F087144B3C
:1008500003B34FF4C870AFF300800446D0B1D5F8AD
:100860004831002780E88800C5F848413846012310
:10087000C4F88871C4F88C71002EE1D0D0E7D4F8A8
:100880008C110A43C4F88C21DAE705F5A674C5F883
:100890004841C0E74FF0FF30BDE8F087880B000803
:1008A0000000000000000000000000000000000048
:1008B0000000000000000000000000000000000038
:1008C0000000000000000000000000000000000028
:1008D0000000000000000000000000000000000018
:1008E0000000000000000000000000000000000008
:1008F00000000000000000000000000000000000F8
:100900004A484B494B4A4C4B4C4C4D4D4D4E4E4F2B
:10091000DFF83881DFF83891DFF838A1DFF838B137
:10092000DFF838C1DFF838E101B4FEE7AFF300804B
:10093000AFF30080AFF30080AFF30080AFF300802F
:1009400000000000000000000000000000000000A7
:100950000000000000000000000000000000000097
:100960000000000000000000000000000000000087
:100970000000000000000000000000000000000077
:100980000000000000000000000000000000000067
:100990000000000000000000000000000000000057
:1009A0000000000000000000000000000000000047
:1009B0000000000000000000000000000000000037
:1009C0000000000000000000000000000000000027
:1009D0000000000000000000000000000000000017
:1009E0000000000000000000000000000000000007
:1009F00000000000000000000000000000000000F7
:100A00002DE9F00F174CC4F808D080B51648FFF751
:100A1000EBFC0546D5F808D0124DBDE880402046D5
:100A2000FFF740FEBDE8F00F704700000000000037
:100A3000111111112222222233333333444444440E
:100A400055555555666666667777777788888888BE
:100A500099999999AAAAAAAABBBBBBBBCCCCCCCC6E
:100A6000CEFAADDE8408002068040020AFF30080D9
:100A7000AFF30080AFF30080AFF30080AFF30080EE
:100A80000000000000000000000000000000000066
:100A90000000000000000000000000000000000056
:100AA0000000000000000000000000000000000046
:100AB0000000000000000000000000000000000036
:100AC0000000000000000000000000000000000026
:100AD0000000000000000000000000000000000016
:100AE0000000000000000000000000000000000006
:100AF00000000000000000000000000000000000F6
:100B0000DFF834D0002103E00C4B5B584350043134
:100B10000B480C4B42189A42F6D30B4A02E00023D2
:100B200042F8043B094B9A42F9D3FFF771FCFFF7F7
:100B300019FEFFF78BFD7047FFFF0120980B00089F
:100B4000000000204004002040040020880C002009
:100B5000FEE70000F8B500BFF8BC08BC9E46704731
:0C0B6000F8B500BFF8BC08BC9E4670470A
:100B6C006D61696E5F74687265616400746872654A
:100B7C0061642023310000004300000018000020B5
:080B8C00B5070008250200086E
:040B94000102000852
:100B98004C0C00200024F4000000000000000000BD
:100BA80001020304060708090000000004030020EE
:100BB8006C030020D40300200000000000000000A7
:100BC800000000000000000000000000000000001D
:100BD800000000000000000000000000840B000876
:100BE80000000000000000000000000000000000FD
:100BF80000000000000000000000000000000000ED
:100C080000000000000000000000000000000000DC
:100C180000000000000000000000000000000000CC
:100C280000000000000000000000000000000000BC
:100C380000000000000000000000000000000000AC
:100C4800000000000000000000000000000000009C
:100C580001000000000000000E33CDAB34126DE639
:100C6800ECDE05000B0000000000000000000000A2
:100C7800000000000000000000000000000000006C
:100C8800000000000000000000000000000000005C
:100C9800000000000000000000000000000000004C
:100CA800000000000000000000000000000000003C
:0400000508000B01E3
:00000001FF
