:020000040800F2
:10000000FFFF0120810800082505000831050008D0
:1000100039050008410500084905000800000000F6
:100020000000000000000000000000005105000872
:100030005D0500080000000069050008010A0008CD
:10004000D1080008D1080008D1080008D10800082C
:10005000D1080008D1080008D1080008D10800081C
:10006000D1080008D1080008D1080008D10800080C
:10007000D1080008D1080008D1080008D1080008FC
:10008000D1080008D1080008D1080008D1080008EC
:10009000D1080008D1080008D1080008D1080008DC
:1000A000D1080008D1080008D1080008D1080008CC
:1000B000D1080008D1080008D1080008D1080008BC
:1000C000D1080008D1080008D1080008D1080008AC
:1000D000D1080008D1080008D1080008D10800089C
:1000E000D1080008D1080008D1080008D10800088C
:1000F000D1080008D1080008D1080008D10800087C
:10010000D1080008D1080008D1080008D10800086B
:10011000D1080008D1080008D1080008D10800085B
:10012000D1080008D1080008D1080008D10800084B
:10013000D1080008D1080008D1080008D10800083B
:10014000D1080008D1080008D1080008D10800082B
:10015000D1080008D1080008D1080008D10800081B
:10016000D1080008D1080008D1080008D10800080B
:10017000D1080008D1080008D108000800000000DC
:10018000D1080008D1080008D1080008D1080008EB
:10019000D1080008D1080008D1080008D1080008DB
:0C01A000D1080008D1080008D1080008B0
:1002000010B5054C237833B9044B13B10448AFF350
:1002100000800123237010BD400400200000000076
:10022000000B0008084B10B51BB108480849AFF394
:1002300000800848036803B910BD074B002BFBD0B2
:10024000BDE81040184700BF00000000000B000888
:1002500044040020400400200000000080B483B06B
:1002600000AF00237B607B6801337B60FBE700BF4E
:1002700080B483B000AF4FF0FF337B607B68013BFD
:100280007B60FBE780B483B000AF294B294A5A60FA
:10029000274B00229A60284B284A5A60284A264B4E
:1002A0009A60284B3C3B7B607B68234A93607B6869
:1002B00044F244421A607B6845F255525A607B68AA
:1002C00046F266629A607B6847F27772DA607B6812
:1002D00048F688021A617B6849F699125A617B6870
:1002E0004AF6AA229A617B684BF6BB32DA617B68D8
:1002F00041F211121A627B6842F222225A627B6832
:1003000043F233329A627B684CF6CC42DA627B6805
:100310004FF6FA621A637B6844F244425A637B6880
:1003200044F244429A630C37BD465DF8047B704743
:1003300078080020180B00086C040020240B00082B
:100340008C0C0020880C002080B584B000AF786051
:1003500039607B681B68FB60FB68002B21D0FB6861
:100360001A683B689A4208D107F10C03184600F05E
:100370001BF8FA687B681A6013E00EE0FB685B68A4
:100380001A683B689A4205D1FB680433184600F0AE
:100390000BF806E0FB685B68FB60FB685B68002BA2
:1003A000ECD11037BD4680BD80B485B000AF786019
:1003B0007B681B68FB60FB685B68BB60BB68FB60BD
:1003C0007B68FA681A601437BD465DF8047B704795
:1003D00080B400AF124A124B1B6843F00103136054
:1003E0000F4B00229A600E4A0D4B1B6823F084735A
:1003F00023F4803313600A4B0A4A5A60084A084BB8
:100400001B6823F480231360054B0022DA60064B3F
:100410004FF000629A60BD465DF8047B704700BFF4
:10042000003802401030002400ED00E080B487B0B6
:1004300000AF00233B6100237B610223FB600023AC
:10044000BB6002237B60324B9B6803F00C033B6173
:100450003B69042B07D0082B09D0002B3FD12D4B33
:100460002D4A1A603FE02B4B2C4A1A603BE0284B88
:100470005B6803F480039B0DBB60254B5B6803F056
:100480003F037B60BB68002B0DD0244A7B68B2FB26
:10049000F3F21F4B596847F6C0730B409B0903FBEF
:1004A00002F37B610CE01C4A7B68B2FBF3F2184B51
:1004B000596847F6C0730B409B0903FB02F37B614D
:1004C000134B5B6803F440331B0C01335B00FB6090
:1004D0007A69FB68B2FBF3F30E4A136003E00D4B3D
:1004E0000D4A1A6000BF0A4B9B6803F0F0031B091A
:1004F0000B4AD35CDBB23B61064B1A683B6922FABC
:1005000003F3044A13601C37BD465DF8047B704753
:1005100000380240000000200024F40000127A009D
:100520000400002080B400AFBD465DF8047B704736
:1005300080B400AFFEE700BF80B400AFFEE700BFAD
:1005400080B400AFFEE700BF80B400AFFEE700BF9D
:1005500080B400AFBD465DF8047B704780B400AF47
:10056000BD465DF8047B704780B400AFBD465DF8C2
:10057000047B704780B485B000AF7860FB687A6810
:100580001A60FB6818461437BD465DF8047B704757
:1005900080B483B000AF03463960FB7197F9073030
:1005A000002B0BDA0D49FB7903F00F03043B3A688B
:1005B000D2B21201D2B20B441A7609E0084997F977
:1005C00007303A68D2B21201D2B20B4483F800234A
:1005D0000C37BD465DF8047B704700BF00ED00E0BE
:1005E00000E100E080B582B000AF78607B68013B3D
:1005F000B3F1807F01D301230FE00A4A7B68013BFE
:1006000053604FF0FF300F21FFF7C2FF054B002270
:100610009A60044B07221A60002318460837BD462B
:1006200080BD00BF10E000E080B500AF00F006F82C
:10063000FFF728FE00F064F9FEE700BF80B500AFC9
:10064000064B1B68064AA2FB03239B091846FFF7CB
:10065000C9FF0346002B00D0FEE780BD000000204C
:10066000D34D621080B483B000AF78607A681346CF
:100670005B00134418460C37BD465DF8047B704799
:1006800080B584B000AF786039607B681B68FB6020
:10069000FB68002B07D13868FFF76CFFF8607B68B8
:1006A000FA681A600DE002E0FB685B68FB60FB68BB
:1006B0005B68002BF8D13868FFF75CFF0246FB68E7
:1006C0005A601037BD4680BD80B584B000AF7860F9
:1006D00039607B681B68FB603868FFF74BFFB860C8
:1006E000BB68FA685A607B68BA681A601037BD4602
:1006F00080BD00BF80B588B000AFF860B9607A6097
:10070000FB681B68FB6115E0FB691A687B689A420D
:100710000DD1FB695B68BB61B868FFF72BFF78619F
:100720007B69BA695A60FB697A695A6005E0FB69BE
:100730005B68FB61FB69002BE6D12037BD4680BDBD
:1007400070B50F4E0F4D761BB61018BF002405D0A4
:10075000013455F8043B9847A642F9D10A4E0B4D97
:10076000761B00F0CDF9B61018BF002406D0013476
:1007700055F8043B9847A642F9D170BD70BD00BF43
:10078000380B0008380B0008400B0008380B000835
:10079000024B13B1024800F005B87047000000009A
:1007A000B1070008014600200246034600F016B8D3
:1007B00038B5084B084DED1AAC1018BFED1805D030
:1007C000013C55F8043D9847002CF9D1BDE838406C
:1007D00000F09CB9400B0008440B00082DE9F047DD
:1007E000254C2568D5F848410646884692469946E4
:1007F000CCB360681F2818DC431C7EB104EB800575
:100800000121C5F888A0D4F8887101FA00F21743D5
:10081000022EC4F88871C5F808911ED002306360BA
:1008200044F820800020BDE8F087144B03B34FF458
:10083000C870AFF300800446D0B1D5F84831002726
:1008400080E88800C5F8484138460123C4F888711B
:10085000C4F88C71002EE1D0D0E7D4F88C110A4393
:10086000C4F88C21DAE705F5A674C5F84841C0E75D
:100870004FF0FF30BDE8F087340B000800000000A7
:10088000DFF834D0002103E00C4B5B5843500431B7
:100890000B480C4B42189A42F6D30B4A02E0002355
:1008A00042F8043B094B9A42F9D3FFF791FDFFF759
:1008B00047FFFFF7B9FE7047FFFF0120440B000818
:1008C000000000204004002040040020880C00208C
:1008D000FEE7000000000000000000000000000033
:1008E0000000000000000000000000000000000008
:1008F00000000000000000000000000000000000F8
:1009000051485249524A534B534C544D544E554FF3
:10091000DFF85481DFF85491DFF854A1DFF854B1C7
:10092000DFF854C1DFF854E101B4FEE7AFF3008013
:10093000AFF30080AFF30080AFF30080AFF300802F
:1009400000000000000000000000000000000000A7
:100950000000000000000000000000000000000097
:100960000000000000000000000000000000000087
:100970000000000000000000000000000000000077
:100980000000000000000000000000000000000067
:100990000000000000000000000000000000000057
:1009A0000000000000000000000000000000000047
:1009B0000000000000000000000000000000000037
:1009C0000000000000000000000000000000000027
:1009D0000000000000000000000000000000000017
:1009E0000000000000000000000000000000000007
:1009F00000000000000000000000000000000000F7
:100A00002DE9F00F1E480021694481601D48D1F88E
:100A100008D0BDE8F00F0FBC5DF804CB70472DE99E
:100A2000F00F194CC4F808D080B51848FFF7BCFC8B
:100A30000546D5F808D0144DBDE880402046FFF7A4
:100A40001FFEBDE8F00F70470000000011111111EA
:100A500022222222333333334444444455555555DE
:100A6000666666667777777788888888999999998E
:100A7000AAAAAAAABBBBBBBBCCCCCCCCCEFAADDE5F
:100A8000780800206C0400208408002068040020FE
:100A9000AFF30080AFF30080AFF30080AFF30080CE
:100AA000AFF30080AFF30080AFF30080AFF30080BE
:100AB000AFF30080AFF30080AFF30080AFF30080AE
:100AC0000000000000000000000000000000000026
:100AD0000000000000000000000000000000000016
:100AE0000000000000000000000000000000000006
:100AF00000000000000000000000000000000000F6
:100B0000F8B500BFF8BC08BC9E467047F8B500BFFA
:080B1000F8BC08BC9E467047CA
:100B18006D61696E5F74687265616400746872659E
:100B28006164202331000000430000001800002009
:080B38009107000825020008E6
:040B400001020008A6
:100B44000024F4000000000000000000010203047F
:100B5400060708090000000000000000040300204C
:100B64006C030020D40300200000000000000000FB
:100B74000000000000000000000000000000000071
:100B8400000000000000000000000000300B00081E
:100B94000000000000000000000000000000000051
:100BA4000000000000000000000000000000000041
:100BB4000000000000000000000000000000000031
:100BC4000000000000000000000000000000000021
:100BD4000000000000000000000000000000000011
:100BE4000000000000000000000000000000000001
:100BF40000000000000000000000000000000000F1
:100C040001000000000000000E33CDAB34126DE68D
:100C1400ECDE05000B0000000000000000000000F6
:100C240000000000000000000000000000000000C0
:100C340000000000000000000000000000000000B0
:100C440000000000000000000000000000000000A0
:100C54000000000000000000000000000000000090
:040000050800088166
:00000001FF
